{
  "address": "0x687C28554335E11A007772a0A87BF354cfd1d87f",
  "abi": [
    {
      "inputs": [
        {
          "internalType": "bytes",
          "name": "terms",
          "type": "bytes"
        },
        {
          "components": [
            {
              "internalType": "address",
              "name": "to",
              "type": "address"
            },
            {
              "internalType": "uint256",
              "name": "gasLimit",
              "type": "uint256"
            },
            {
              "internalType": "bytes",
              "name": "data",
              "type": "bytes"
            }
          ],
          "internalType": "struct Transaction",
          "name": "transaction",
          "type": "tuple"
        },
        {
          "internalType": "bytes32",
          "name": "delegationHash",
          "type": "bytes32"
        }
      ],
      "name": "enforceCaveat",
      "outputs": [
        {
          "internalType": "bool",
          "name": "",
          "type": "bool"
        }
      ],
      "stateMutability": "pure",
      "type": "function"
    }
  ],
  "transactionHash": "0xe8f79a0bdce60b38a755c15deb287b1f843ac2c62143ae46e409d6e79910dc0d",
  "args": [],
  "numDeployments": 1,
  "solcInputHash": "9434a8c86af30d9c166c7025f6db4f22",
  "bytecode": "0x608060405234801561001057600080fd5b506102f3806100206000396000f3fe608060405234801561001057600080fd5b506004361061002b5760003560e01c80635068de4c14610030575b600080fd5b61004361003e36600461014e565b610057565b604051901515815260200160405180910390f35b60008061006760408501856101ef565b6100769160049160009161023d565b61007f91610267565b905060005b858110156100e757600087828861009c826004610297565b926100a99392919061023d565b6100b291610267565b90506001600160e01b0319808416908216036100d45760019350505050610146565b506100e0600482610297565b9050610084565b5060405162461bcd60e51b815260206004820152602960248201527f416c6c6f7765644d6574686f6473456e666f726365723a6d6574686f642d6e6f6044820152681d0b585b1b1bddd95960ba1b606482015260840160405180910390fd5b949350505050565b6000806000806060858703121561016457600080fd5b843567ffffffffffffffff8082111561017c57600080fd5b818701915087601f83011261019057600080fd5b81358181111561019f57600080fd5b8860208285010111156101b157600080fd5b6020928301965094509086013590808211156101cc57600080fd5b508501606081880312156101df57600080fd5b9396929550929360400135925050565b6000808335601e1984360301811261020657600080fd5b83018035915067ffffffffffffffff82111561022157600080fd5b60200191503681900382131561023657600080fd5b9250929050565b6000808585111561024d57600080fd5b8386111561025a57600080fd5b5050820193919092039150565b6001600160e01b0319813581811691600485101561028f5780818660040360031b1b83161692505b505092915050565b600082198211156102b857634e487b7160e01b600052601160045260246000fd5b50019056fea2646970667358221220231dec30f5347ff17e9e6ce1e3a6c3bc4893f360622799a8abf4c872ebdbca5d64736f6c634300080f0033",
  "devdoc": {
    "kind": "dev",
    "methods": {},
    "version": 1
  },
  "userdoc": {
    "kind": "user",
    "methods": {},
    "version": 1
  },
  "storageLayout": {
    "storage": [],
    "types": null
  }
}