{
  "address": "0x2B9F771012E83368168A3E6c92c7421b333cB671",
  "abi": [
    {
      "inputs": [],
      "stateMutability": "nonpayable",
      "type": "constructor"
    },
    {
      "inputs": [
        {
          "components": [
            {
              "internalType": "address",
              "name": "enforcer",
              "type": "address"
            },
            {
              "internalType": "bytes",
              "name": "terms",
              "type": "bytes"
            }
          ],
          "internalType": "struct Caveat[]",
          "name": "_input",
          "type": "tuple[]"
        }
      ],
      "name": "GET_CAVEAT_ARRAY_PACKETHASH",
      "outputs": [
        {
          "internalType": "bytes32",
          "name": "",
          "type": "bytes32"
        }
      ],
      "stateMutability": "pure",
      "type": "function"
    },
    {
      "inputs": [
        {
          "components": [
            {
              "internalType": "address",
              "name": "enforcer",
              "type": "address"
            },
            {
              "internalType": "bytes",
              "name": "terms",
              "type": "bytes"
            }
          ],
          "internalType": "struct Caveat",
          "name": "_input",
          "type": "tuple"
        }
      ],
      "name": "GET_CAVEAT_PACKETHASH",
      "outputs": [
        {
          "internalType": "bytes32",
          "name": "",
          "type": "bytes32"
        }
      ],
      "stateMutability": "pure",
      "type": "function"
    },
    {
      "inputs": [
        {
          "components": [
            {
              "internalType": "address",
              "name": "delegate",
              "type": "address"
            },
            {
              "internalType": "bytes32",
              "name": "authority",
              "type": "bytes32"
            },
            {
              "components": [
                {
                  "internalType": "address",
                  "name": "enforcer",
                  "type": "address"
                },
                {
                  "internalType": "bytes",
                  "name": "terms",
                  "type": "bytes"
                }
              ],
              "internalType": "struct Caveat[]",
              "name": "caveats",
              "type": "tuple[]"
            }
          ],
          "internalType": "struct Delegation",
          "name": "_input",
          "type": "tuple"
        }
      ],
      "name": "GET_DELEGATION_PACKETHASH",
      "outputs": [
        {
          "internalType": "bytes32",
          "name": "",
          "type": "bytes32"
        }
      ],
      "stateMutability": "pure",
      "type": "function"
    },
    {
      "inputs": [
        {
          "components": [
            {
              "components": [
                {
                  "components": [
                    {
                      "internalType": "address",
                      "name": "to",
                      "type": "address"
                    },
                    {
                      "internalType": "uint256",
                      "name": "gasLimit",
                      "type": "uint256"
                    },
                    {
                      "internalType": "bytes",
                      "name": "data",
                      "type": "bytes"
                    }
                  ],
                  "internalType": "struct Transaction",
                  "name": "transaction",
                  "type": "tuple"
                },
                {
                  "components": [
                    {
                      "components": [
                        {
                          "internalType": "address",
                          "name": "delegate",
                          "type": "address"
                        },
                        {
                          "internalType": "bytes32",
                          "name": "authority",
                          "type": "bytes32"
                        },
                        {
                          "components": [
                            {
                              "internalType": "address",
                              "name": "enforcer",
                              "type": "address"
                            },
                            {
                              "internalType": "bytes",
                              "name": "terms",
                              "type": "bytes"
                            }
                          ],
                          "internalType": "struct Caveat[]",
                          "name": "caveats",
                          "type": "tuple[]"
                        }
                      ],
                      "internalType": "struct Delegation",
                      "name": "delegation",
                      "type": "tuple"
                    },
                    {
                      "internalType": "bytes",
                      "name": "signature",
                      "type": "bytes"
                    }
                  ],
                  "internalType": "struct SignedDelegation[]",
                  "name": "authority",
                  "type": "tuple[]"
                }
              ],
              "internalType": "struct Invocation[]",
              "name": "batch",
              "type": "tuple[]"
            },
            {
              "components": [
                {
                  "internalType": "uint256",
                  "name": "nonce",
                  "type": "uint256"
                },
                {
                  "internalType": "uint256",
                  "name": "queue",
                  "type": "uint256"
                }
              ],
              "internalType": "struct ReplayProtection",
              "name": "replayProtection",
              "type": "tuple"
            }
          ],
          "internalType": "struct Invocations",
          "name": "_input",
          "type": "tuple"
        }
      ],
      "name": "GET_INVOCATIONS_PACKETHASH",
      "outputs": [
        {
          "internalType": "bytes32",
          "name": "",
          "type": "bytes32"
        }
      ],
      "stateMutability": "pure",
      "type": "function"
    },
    {
      "inputs": [
        {
          "components": [
            {
              "components": [
                {
                  "internalType": "address",
                  "name": "to",
                  "type": "address"
                },
                {
                  "internalType": "uint256",
                  "name": "gasLimit",
                  "type": "uint256"
                },
                {
                  "internalType": "bytes",
                  "name": "data",
                  "type": "bytes"
                }
              ],
              "internalType": "struct Transaction",
              "name": "transaction",
              "type": "tuple"
            },
            {
              "components": [
                {
                  "components": [
                    {
                      "internalType": "address",
                      "name": "delegate",
                      "type": "address"
                    },
                    {
                      "internalType": "bytes32",
                      "name": "authority",
                      "type": "bytes32"
                    },
                    {
                      "components": [
                        {
                          "internalType": "address",
                          "name": "enforcer",
                          "type": "address"
                        },
                        {
                          "internalType": "bytes",
                          "name": "terms",
                          "type": "bytes"
                        }
                      ],
                      "internalType": "struct Caveat[]",
                      "name": "caveats",
                      "type": "tuple[]"
                    }
                  ],
                  "internalType": "struct Delegation",
                  "name": "delegation",
                  "type": "tuple"
                },
                {
                  "internalType": "bytes",
                  "name": "signature",
                  "type": "bytes"
                }
              ],
              "internalType": "struct SignedDelegation[]",
              "name": "authority",
              "type": "tuple[]"
            }
          ],
          "internalType": "struct Invocation[]",
          "name": "_input",
          "type": "tuple[]"
        }
      ],
      "name": "GET_INVOCATION_ARRAY_PACKETHASH",
      "outputs": [
        {
          "internalType": "bytes32",
          "name": "",
          "type": "bytes32"
        }
      ],
      "stateMutability": "pure",
      "type": "function"
    },
    {
      "inputs": [
        {
          "components": [
            {
              "components": [
                {
                  "internalType": "address",
                  "name": "to",
                  "type": "address"
                },
                {
                  "internalType": "uint256",
                  "name": "gasLimit",
                  "type": "uint256"
                },
                {
                  "internalType": "bytes",
                  "name": "data",
                  "type": "bytes"
                }
              ],
              "internalType": "struct Transaction",
              "name": "transaction",
              "type": "tuple"
            },
            {
              "components": [
                {
                  "components": [
                    {
                      "internalType": "address",
                      "name": "delegate",
                      "type": "address"
                    },
                    {
                      "internalType": "bytes32",
                      "name": "authority",
                      "type": "bytes32"
                    },
                    {
                      "components": [
                        {
                          "internalType": "address",
                          "name": "enforcer",
                          "type": "address"
                        },
                        {
                          "internalType": "bytes",
                          "name": "terms",
                          "type": "bytes"
                        }
                      ],
                      "internalType": "struct Caveat[]",
                      "name": "caveats",
                      "type": "tuple[]"
                    }
                  ],
                  "internalType": "struct Delegation",
                  "name": "delegation",
                  "type": "tuple"
                },
                {
                  "internalType": "bytes",
                  "name": "signature",
                  "type": "bytes"
                }
              ],
              "internalType": "struct SignedDelegation[]",
              "name": "authority",
              "type": "tuple[]"
            }
          ],
          "internalType": "struct Invocation",
          "name": "_input",
          "type": "tuple"
        }
      ],
      "name": "GET_INVOCATION_PACKETHASH",
      "outputs": [
        {
          "internalType": "bytes32",
          "name": "",
          "type": "bytes32"
        }
      ],
      "stateMutability": "pure",
      "type": "function"
    },
    {
      "inputs": [
        {
          "components": [
            {
              "internalType": "uint256",
              "name": "nonce",
              "type": "uint256"
            },
            {
              "internalType": "uint256",
              "name": "queue",
              "type": "uint256"
            }
          ],
          "internalType": "struct ReplayProtection",
          "name": "_input",
          "type": "tuple"
        }
      ],
      "name": "GET_REPLAYPROTECTION_PACKETHASH",
      "outputs": [
        {
          "internalType": "bytes32",
          "name": "",
          "type": "bytes32"
        }
      ],
      "stateMutability": "pure",
      "type": "function"
    },
    {
      "inputs": [
        {
          "components": [
            {
              "components": [
                {
                  "internalType": "address",
                  "name": "delegate",
                  "type": "address"
                },
                {
                  "internalType": "bytes32",
                  "name": "authority",
                  "type": "bytes32"
                },
                {
                  "components": [
                    {
                      "internalType": "address",
                      "name": "enforcer",
                      "type": "address"
                    },
                    {
                      "internalType": "bytes",
                      "name": "terms",
                      "type": "bytes"
                    }
                  ],
                  "internalType": "struct Caveat[]",
                  "name": "caveats",
                  "type": "tuple[]"
                }
              ],
              "internalType": "struct Delegation",
              "name": "delegation",
              "type": "tuple"
            },
            {
              "internalType": "bytes",
              "name": "signature",
              "type": "bytes"
            }
          ],
          "internalType": "struct SignedDelegation[]",
          "name": "_input",
          "type": "tuple[]"
        }
      ],
      "name": "GET_SIGNEDDELEGATION_ARRAY_PACKETHASH",
      "outputs": [
        {
          "internalType": "bytes32",
          "name": "",
          "type": "bytes32"
        }
      ],
      "stateMutability": "pure",
      "type": "function"
    },
    {
      "inputs": [
        {
          "components": [
            {
              "components": [
                {
                  "internalType": "address",
                  "name": "delegate",
                  "type": "address"
                },
                {
                  "internalType": "bytes32",
                  "name": "authority",
                  "type": "bytes32"
                },
                {
                  "components": [
                    {
                      "internalType": "address",
                      "name": "enforcer",
                      "type": "address"
                    },
                    {
                      "internalType": "bytes",
                      "name": "terms",
                      "type": "bytes"
                    }
                  ],
                  "internalType": "struct Caveat[]",
                  "name": "caveats",
                  "type": "tuple[]"
                }
              ],
              "internalType": "struct Delegation",
              "name": "delegation",
              "type": "tuple"
            },
            {
              "internalType": "bytes",
              "name": "signature",
              "type": "bytes"
            }
          ],
          "internalType": "struct SignedDelegation",
          "name": "_input",
          "type": "tuple"
        }
      ],
      "name": "GET_SIGNEDDELEGATION_PACKETHASH",
      "outputs": [
        {
          "internalType": "bytes32",
          "name": "",
          "type": "bytes32"
        }
      ],
      "stateMutability": "pure",
      "type": "function"
    },
    {
      "inputs": [
        {
          "components": [
            {
              "internalType": "address",
              "name": "to",
              "type": "address"
            },
            {
              "internalType": "uint256",
              "name": "gasLimit",
              "type": "uint256"
            },
            {
              "internalType": "bytes",
              "name": "data",
              "type": "bytes"
            }
          ],
          "internalType": "struct Transaction",
          "name": "_input",
          "type": "tuple"
        }
      ],
      "name": "GET_TRANSACTION_PACKETHASH",
      "outputs": [
        {
          "internalType": "bytes32",
          "name": "",
          "type": "bytes32"
        }
      ],
      "stateMutability": "pure",
      "type": "function"
    },
    {
      "inputs": [
        {
          "components": [
            {
              "components": [
                {
                  "internalType": "address",
                  "name": "to",
                  "type": "address"
                },
                {
                  "internalType": "uint256",
                  "name": "gasLimit",
                  "type": "uint256"
                },
                {
                  "internalType": "bytes",
                  "name": "data",
                  "type": "bytes"
                }
              ],
              "internalType": "struct Transaction",
              "name": "transaction",
              "type": "tuple"
            },
            {
              "components": [
                {
                  "components": [
                    {
                      "internalType": "address",
                      "name": "delegate",
                      "type": "address"
                    },
                    {
                      "internalType": "bytes32",
                      "name": "authority",
                      "type": "bytes32"
                    },
                    {
                      "components": [
                        {
                          "internalType": "address",
                          "name": "enforcer",
                          "type": "address"
                        },
                        {
                          "internalType": "bytes",
                          "name": "terms",
                          "type": "bytes"
                        }
                      ],
                      "internalType": "struct Caveat[]",
                      "name": "caveats",
                      "type": "tuple[]"
                    }
                  ],
                  "internalType": "struct Delegation",
                  "name": "delegation",
                  "type": "tuple"
                },
                {
                  "internalType": "bytes",
                  "name": "signature",
                  "type": "bytes"
                }
              ],
              "internalType": "struct SignedDelegation[]",
              "name": "authority",
              "type": "tuple[]"
            }
          ],
          "internalType": "struct Invocation[]",
          "name": "batch",
          "type": "tuple[]"
        }
      ],
      "name": "contractInvoke",
      "outputs": [
        {
          "internalType": "bool",
          "name": "",
          "type": "bool"
        }
      ],
      "stateMutability": "nonpayable",
      "type": "function"
    },
    {
      "inputs": [],
      "name": "domainHash",
      "outputs": [
        {
          "internalType": "bytes32",
          "name": "",
          "type": "bytes32"
        }
      ],
      "stateMutability": "view",
      "type": "function"
    },
    {
      "inputs": [
        {
          "components": [
            {
              "internalType": "address",
              "name": "delegate",
              "type": "address"
            },
            {
              "internalType": "bytes32",
              "name": "authority",
              "type": "bytes32"
            },
            {
              "components": [
                {
                  "internalType": "address",
                  "name": "enforcer",
                  "type": "address"
                },
                {
                  "internalType": "bytes",
                  "name": "terms",
                  "type": "bytes"
                }
              ],
              "internalType": "struct Caveat[]",
              "name": "caveats",
              "type": "tuple[]"
            }
          ],
          "internalType": "struct Delegation",
          "name": "delegation",
          "type": "tuple"
        }
      ],
      "name": "getDelegationTypedDataHash",
      "outputs": [
        {
          "internalType": "bytes32",
          "name": "",
          "type": "bytes32"
        }
      ],
      "stateMutability": "view",
      "type": "function"
    },
    {
      "inputs": [
        {
          "internalType": "string",
          "name": "contractName",
          "type": "string"
        },
        {
          "internalType": "string",
          "name": "version",
          "type": "string"
        },
        {
          "internalType": "uint256",
          "name": "chainId",
          "type": "uint256"
        },
        {
          "internalType": "address",
          "name": "verifyingContract",
          "type": "address"
        }
      ],
      "name": "getEIP712DomainHash",
      "outputs": [
        {
          "internalType": "bytes32",
          "name": "",
          "type": "bytes32"
        }
      ],
      "stateMutability": "pure",
      "type": "function"
    },
    {
      "inputs": [
        {
          "components": [
            {
              "components": [
                {
                  "components": [
                    {
                      "internalType": "address",
                      "name": "to",
                      "type": "address"
                    },
                    {
                      "internalType": "uint256",
                      "name": "gasLimit",
                      "type": "uint256"
                    },
                    {
                      "internalType": "bytes",
                      "name": "data",
                      "type": "bytes"
                    }
                  ],
                  "internalType": "struct Transaction",
                  "name": "transaction",
                  "type": "tuple"
                },
                {
                  "components": [
                    {
                      "components": [
                        {
                          "internalType": "address",
                          "name": "delegate",
                          "type": "address"
                        },
                        {
                          "internalType": "bytes32",
                          "name": "authority",
                          "type": "bytes32"
                        },
                        {
                          "components": [
                            {
                              "internalType": "address",
                              "name": "enforcer",
                              "type": "address"
                            },
                            {
                              "internalType": "bytes",
                              "name": "terms",
                              "type": "bytes"
                            }
                          ],
                          "internalType": "struct Caveat[]",
                          "name": "caveats",
                          "type": "tuple[]"
                        }
                      ],
                      "internalType": "struct Delegation",
                      "name": "delegation",
                      "type": "tuple"
                    },
                    {
                      "internalType": "bytes",
                      "name": "signature",
                      "type": "bytes"
                    }
                  ],
                  "internalType": "struct SignedDelegation[]",
                  "name": "authority",
                  "type": "tuple[]"
                }
              ],
              "internalType": "struct Invocation[]",
              "name": "batch",
              "type": "tuple[]"
            },
            {
              "components": [
                {
                  "internalType": "uint256",
                  "name": "nonce",
                  "type": "uint256"
                },
                {
                  "internalType": "uint256",
                  "name": "queue",
                  "type": "uint256"
                }
              ],
              "internalType": "struct ReplayProtection",
              "name": "replayProtection",
              "type": "tuple"
            }
          ],
          "internalType": "struct Invocations",
          "name": "invocations",
          "type": "tuple"
        }
      ],
      "name": "getInvocationsTypedDataHash",
      "outputs": [
        {
          "internalType": "bytes32",
          "name": "",
          "type": "bytes32"
        }
      ],
      "stateMutability": "view",
      "type": "function"
    },
    {
      "inputs": [
        {
          "internalType": "address",
          "name": "intendedSender",
          "type": "address"
        },
        {
          "internalType": "uint256",
          "name": "queue",
          "type": "uint256"
        }
      ],
      "name": "getNonce",
      "outputs": [
        {
          "internalType": "uint256",
          "name": "",
          "type": "uint256"
        }
      ],
      "stateMutability": "view",
      "type": "function"
    },
    {
      "inputs": [
        {
          "components": [
            {
              "components": [
                {
                  "components": [
                    {
                      "components": [
                        {
                          "internalType": "address",
                          "name": "to",
                          "type": "address"
                        },
                        {
                          "internalType": "uint256",
                          "name": "gasLimit",
                          "type": "uint256"
                        },
                        {
                          "internalType": "bytes",
                          "name": "data",
                          "type": "bytes"
                        }
                      ],
                      "internalType": "struct Transaction",
                      "name": "transaction",
                      "type": "tuple"
                    },
                    {
                      "components": [
                        {
                          "components": [
                            {
                              "internalType": "address",
                              "name": "delegate",
                              "type": "address"
                            },
                            {
                              "internalType": "bytes32",
                              "name": "authority",
                              "type": "bytes32"
                            },
                            {
                              "components": [
                                {
                                  "internalType": "address",
                                  "name": "enforcer",
                                  "type": "address"
                                },
                                {
                                  "internalType": "bytes",
                                  "name": "terms",
                                  "type": "bytes"
                                }
                              ],
                              "internalType": "struct Caveat[]",
                              "name": "caveats",
                              "type": "tuple[]"
                            }
                          ],
                          "internalType": "struct Delegation",
                          "name": "delegation",
                          "type": "tuple"
                        },
                        {
                          "internalType": "bytes",
                          "name": "signature",
                          "type": "bytes"
                        }
                      ],
                      "internalType": "struct SignedDelegation[]",
                      "name": "authority",
                      "type": "tuple[]"
                    }
                  ],
                  "internalType": "struct Invocation[]",
                  "name": "batch",
                  "type": "tuple[]"
                },
                {
                  "components": [
                    {
                      "internalType": "uint256",
                      "name": "nonce",
                      "type": "uint256"
                    },
                    {
                      "internalType": "uint256",
                      "name": "queue",
                      "type": "uint256"
                    }
                  ],
                  "internalType": "struct ReplayProtection",
                  "name": "replayProtection",
                  "type": "tuple"
                }
              ],
              "internalType": "struct Invocations",
              "name": "invocations",
              "type": "tuple"
            },
            {
              "internalType": "bytes",
              "name": "signature",
              "type": "bytes"
            }
          ],
          "internalType": "struct SignedInvocation[]",
          "name": "signedInvocations",
          "type": "tuple[]"
        }
      ],
      "name": "invoke",
      "outputs": [
        {
          "internalType": "bool",
          "name": "success",
          "type": "bool"
        }
      ],
      "stateMutability": "nonpayable",
      "type": "function"
    },
    {
      "inputs": [
        {
          "components": [
            {
              "components": [
                {
                  "internalType": "address",
                  "name": "delegate",
                  "type": "address"
                },
                {
                  "internalType": "bytes32",
                  "name": "authority",
                  "type": "bytes32"
                },
                {
                  "components": [
                    {
                      "internalType": "address",
                      "name": "enforcer",
                      "type": "address"
                    },
                    {
                      "internalType": "bytes",
                      "name": "terms",
                      "type": "bytes"
                    }
                  ],
                  "internalType": "struct Caveat[]",
                  "name": "caveats",
                  "type": "tuple[]"
                }
              ],
              "internalType": "struct Delegation",
              "name": "delegation",
              "type": "tuple"
            },
            {
              "internalType": "bytes",
              "name": "signature",
              "type": "bytes"
            }
          ],
          "internalType": "struct SignedDelegation",
          "name": "signedDelegation",
          "type": "tuple"
        }
      ],
      "name": "verifyDelegationSignature",
      "outputs": [
        {
          "internalType": "address",
          "name": "",
          "type": "address"
        }
      ],
      "stateMutability": "view",
      "type": "function"
    },
    {
      "inputs": [
        {
          "components": [
            {
              "components": [
                {
                  "components": [
                    {
                      "components": [
                        {
                          "internalType": "address",
                          "name": "to",
                          "type": "address"
                        },
                        {
                          "internalType": "uint256",
                          "name": "gasLimit",
                          "type": "uint256"
                        },
                        {
                          "internalType": "bytes",
                          "name": "data",
                          "type": "bytes"
                        }
                      ],
                      "internalType": "struct Transaction",
                      "name": "transaction",
                      "type": "tuple"
                    },
                    {
                      "components": [
                        {
                          "components": [
                            {
                              "internalType": "address",
                              "name": "delegate",
                              "type": "address"
                            },
                            {
                              "internalType": "bytes32",
                              "name": "authority",
                              "type": "bytes32"
                            },
                            {
                              "components": [
                                {
                                  "internalType": "address",
                                  "name": "enforcer",
                                  "type": "address"
                                },
                                {
                                  "internalType": "bytes",
                                  "name": "terms",
                                  "type": "bytes"
                                }
                              ],
                              "internalType": "struct Caveat[]",
                              "name": "caveats",
                              "type": "tuple[]"
                            }
                          ],
                          "internalType": "struct Delegation",
                          "name": "delegation",
                          "type": "tuple"
                        },
                        {
                          "internalType": "bytes",
                          "name": "signature",
                          "type": "bytes"
                        }
                      ],
                      "internalType": "struct SignedDelegation[]",
                      "name": "authority",
                      "type": "tuple[]"
                    }
                  ],
                  "internalType": "struct Invocation[]",
                  "name": "batch",
                  "type": "tuple[]"
                },
                {
                  "components": [
                    {
                      "internalType": "uint256",
                      "name": "nonce",
                      "type": "uint256"
                    },
                    {
                      "internalType": "uint256",
                      "name": "queue",
                      "type": "uint256"
                    }
                  ],
                  "internalType": "struct ReplayProtection",
                  "name": "replayProtection",
                  "type": "tuple"
                }
              ],
              "internalType": "struct Invocations",
              "name": "invocations",
              "type": "tuple"
            },
            {
              "internalType": "bytes",
              "name": "signature",
              "type": "bytes"
            }
          ],
          "internalType": "struct SignedInvocation",
          "name": "signedInvocation",
          "type": "tuple"
        }
      ],
      "name": "verifyInvocationSignature",
      "outputs": [
        {
          "internalType": "address",
          "name": "",
          "type": "address"
        }
      ],
      "stateMutability": "view",
      "type": "function"
    }
  ],
  "transactionHash": "0xfbf2ef3bbacbe062f1380bda437d428d63682fdbc352f6eeb49433d8f06c8162",
  "args": [],
  "numDeployments": 2,
  "solcInputHash": "9a6761e75c8bfef578836c2ba7b95dba",
  "bytecode": "0x60a060405234801561001057600080fd5b506100646040518060400160405280601081526020016f44656c6567617461626c6552656c617960801b815250604051806040016040528060018152602001603160f81b815250463061006c60201b60201c565b6080526100e8565b8351602094850120835193850193909320604080517f8b73c3c69bb8fe3d512ecc4cf759cc79239f7b179b0ffacaa9a75d522b39400f8188015280820195909552606085019190915260808401929092526001600160a01b031660a0808401919091528151808403909101815260c09092019052805191012090565b6080516119ca6101116000396000818161035401528181610617015261084d01526119ca6000f3fe608060405234801561001057600080fd5b50600436106101215760003560e01c80637234eefe116100ad57806397182ed61161007157806397182ed61461028c578063a2e01f751461029f578063caced6c5146102b2578063d327c1eb146102c5578063dfe86ac51461034f57600080fd5b80637234eefe146101f4578063736f7ce7146102075780637b577b581461021a578063895358031461022d5780638a04499e1461026157600080fd5b80635c6d9f0c116100f45780635c6d9f0c146101955780635cf1b24a146101a857806360b6d768146101bb5780636c2b1253146101ce5780636f965803146101e157600080fd5b806308aaf6b0146101265780632f52a2fd1461014c5780632fad7efc1461015f5780633a48182114610182575b600080fd5b610139610134366004610fd5565b610376565b6040519081526020015b60405180910390f35b61013961015a36600461111d565b6103f6565b61017261016d36600461119c565b610461565b6040519015158152602001610143565b6101396101903660046113f5565b610528565b6101726101a336600461119c565b61059f565b6101396101b6366004611429565b6105b5565b6101396101c93660046114e6565b610612565b6101396101dc36600461151a565b610662565b6101396101ef36600461154e565b6106bf565b6101396102023660046114e6565b610710565b61013961021536600461156a565b61074e565b61013961022836600461159e565b6107b6565b61013961023b3660046115d2565b6001600160a01b0391909116600090815260208181526040808320938352929052205490565b61027461026f36600461151a565b61081e565b6040516001600160a01b039091168152602001610143565b61013961029a36600461111d565b610848565b6101396102ad3660046115fc565b610875565b6102746102c036600461166f565b6108e1565b6101396102d33660046116a3565b8351602094850120835193850193909320604080517f8b73c3c69bb8fe3d512ecc4cf759cc79239f7b179b0ffacaa9a75d522b39400f8188015280820195909552606085019190915260808401929092526001600160a01b031660a0808401919091528151808403909101815260c09092019052805191012090565b6101397f000000000000000000000000000000000000000000000000000000000000000081565b6000807f80ad7e1b04ee6d994a125f4714ca0720908bd80ed16063ec8aee4b88e9253e2d83600001518460200151805190602001206040516020016103d7939291909283526001600160a01b03919091166020830152604082015260600190565b60408051601f1981840301815291905280516020909101209392505050565b6000807f409f5114779a253e700d775d7845e6efc1e83685ac59868d2df3d4de51c7d6218360000151846020015161043186604001516107b6565b6040805160208101959095526001600160a01b03909316928401929092526060830152608082015260a0016103d7565b6000805b82811015610521573684848381811061048057610480611720565b90506020028101906104929190611736565b905060006104a26102c083611756565b90506104ee818787868181106104ba576104ba611720565b90506020028101906104cc9190611736565b6104d69080611762565b6020018036038101906104e9919061154e565b61090b565b61050b6104fb8380611762565b6105059080611778565b836109ca565b5050508080610519906117d7565b915050610465565b5092915050565b6000606060005b8351811015610590578161055b85838151811061054e5761054e611720565b60200260200101516105b5565b60405160200161056c929190611820565b60405160208183030381529060405291508080610588906117d7565b91505061052f565b50805160209091012092915050565b60006105ac8383336109ca565b90505b92915050565b6000807fd97dd99b404d177890f06a8f0fc8e5ed0333fb2ebb6684360709066e8984f5946105e68460000151610875565b6105f3856020015161074e565b60408051602081019490945283019190915260608201526080016103d7565b6000807f000000000000000000000000000000000000000000000000000000000000000061063f84610710565b60405161190160f01b6020820152602281019290925260428201526062016103d7565b6000807f3c36a06e1d288b0f94f565588317a46ad11bc3c96992109f9a2365a2737259a761069384600001516103f6565b6020808601518051908201206040516103d7949392019283526020830191909152604082015260600190565b6000807fe8d3d963b33868fb116316bc3fd55e8f49123f30e4418f71e140d54b7cd3b2b9836000015184602001516040516020016103d7939291909283526020830191909152604082015260600190565b6000807f08c69a206c06f5334b35ceb1186181a713b21aff02cf66285f375084fbef2eb86107418460000151610528565b6105f385602001516106bf565b6000606060005b8351811015610590578161078185838151811061077457610774611720565b6020026020010151610662565b604051602001610792929190611820565b604051602081830303815290604052915080806107ae906117d7565b915050610755565b6000606060005b835181101561059057816107e98583815181106107dc576107dc611720565b6020026020010151610376565b6040516020016107fa929190611820565b60405160208183030381529060405291508080610816906117d7565b9150506107bd565b80516000908161082d82610848565b9050600061083f828660200151610d4c565b95945050505050565b6000807f000000000000000000000000000000000000000000000000000000000000000061063f846103f6565b6000807fb16dfdb3b8fa033fe30ac976cd4a50ad256b6811c80d90fcd0b323eec190047d836000015184602001518560400151805190602001206040516020016103d794939291909384526001600160a01b039290921660208401526040830152606082015260800190565b6000806108f18360000151610612565b90506000610903828560200151610d4c565b949350505050565b60208082015182516001600160a01b038516600090815280845260408082208483529094529290922054909190610943906001611842565b81146109a25760405162461bcd60e51b815260206004820152602360248201527f44656c6567617461626c65436f72653a6e6f6e6365322d6f75742d6f662d6f726044820152623232b960e91b60648201526084015b60405180910390fd5b6001600160a01b03909316600090815260208181526040808320938352929052209190915550565b6000805b83811015610d445760008585838181106109ea576109ea611720565b90506020028101906109fc9190611736565b610a059061185a565b9050600080826020015151600003610a1d5750849050805b6000805b846020015151811015610cb857600085602001518281518110610a4657610a46611720565b602002602001015190506000610a5b8261081e565b905082600003610a6c578095508594505b846001600160a01b0316816001600160a01b031614610adf5760405162461bcd60e51b815260206004820152602960248201527f44656c6567617461626c65436f72653a696e76616c69642d64656c656761746960448201526837b716b9b4b3b732b960b91b6064820152608401610999565b815160208101518514610b4e5760405162461bcd60e51b815260206004820152603160248201527f44656c6567617461626c65436f72653a696e76616c69642d617574686f726974604482015270792d64656c65676174696f6e2d6c696e6b60781b6064820152608401610999565b6000610b5984610662565b905060005b8260400151518161ffff161015610c9b57600083604001518261ffff1681518110610b8b57610b8b611720565b60200260200101516000015190506000816001600160a01b0316635068de4c86604001518561ffff1681518110610bc457610bc4611720565b6020026020010151602001518e60000151876040518463ffffffff1660e01b8152600401610bf493929190611892565b6020604051808303816000875af1158015610c13573d6000803e3d6000fd5b505050506040513d601f19601f82011682018060405250810190610c3791906118ee565b905080610c865760405162461bcd60e51b815260206004820152601f60248201527f44656c6567617461626c65436f72653a6361766561742d72656a6563746564006044820152606401610999565b50508080610c9390611917565b915050610b5e565b50905195509350829150610cb09050816117d7565b915050610a21565b508351805160408201516020830151610cd392919087610e23565b965086610d2c5760405162461bcd60e51b815260206004820152602160248201527f44656c6567617461626c65436f72653a3a657865637574696f6e2d6661696c656044820152601960fa1b6064820152608401610999565b50505050508080610d3c906117d7565b9150506109ce565b509392505050565b6000806000808451604114610d6757600093505050506105af565b50505060208201516040830151606084015160001a601b811015610d9357610d90601b82611938565b90505b8060ff16601b14158015610dab57508060ff16601c14155b15610dbc57600093505050506105af565b60408051600081526020810180835288905260ff831691810191909152606081018490526080810183905260019060a0016020604051602081039080840390855afa158015610e0f573d6000803e3d6000fd5b5050506020604051035193505050506105af565b6000808483604051602001610e3992919061195d565b604051602081830303815290604052905060008082516020840160008a89f19695505050505050565b634e487b7160e01b600052604160045260246000fd5b604080519081016001600160401b0381118282101715610e9a57610e9a610e62565b60405290565b604051606081016001600160401b0381118282101715610e9a57610e9a610e62565b604051601f8201601f191681016001600160401b0381118282101715610eea57610eea610e62565b604052919050565b80356001600160a01b0381168114610f0957600080fd5b919050565b600082601f830112610f1f57600080fd5b81356001600160401b03811115610f3857610f38610e62565b610f4b601f8201601f1916602001610ec2565b818152846020838601011115610f6057600080fd5b816020850160208301376000918101602001919091529392505050565b600060408284031215610f8f57600080fd5b610f97610e78565b9050610fa282610ef2565b815260208201356001600160401b03811115610fbd57600080fd5b610fc984828501610f0e565b60208301525092915050565b600060208284031215610fe757600080fd5b81356001600160401b03811115610ffd57600080fd5b61090384828501610f7d565b60006001600160401b0382111561102257611022610e62565b5060051b60200190565b600082601f83011261103d57600080fd5b8135602061105261104d83611009565b610ec2565b82815260059290921b8401810191818101908684111561107157600080fd5b8286015b848110156110b05780356001600160401b038111156110945760008081fd5b6110a28986838b0101610f7d565b845250918301918301611075565b509695505050505050565b6000606082840312156110cd57600080fd5b6110d5610ea0565b90506110e082610ef2565b81526020820135602082015260408201356001600160401b0381111561110557600080fd5b6111118482850161102c565b60408301525092915050565b60006020828403121561112f57600080fd5b81356001600160401b0381111561114557600080fd5b610903848285016110bb565b60008083601f84011261116357600080fd5b5081356001600160401b0381111561117a57600080fd5b6020830191508360208260051b850101111561119557600080fd5b9250929050565b600080602083850312156111af57600080fd5b82356001600160401b038111156111c557600080fd5b6111d185828601611151565b90969095509350505050565b6000606082840312156111ef57600080fd5b6111f7610ea0565b905061120282610ef2565b81526020820135602082015260408201356001600160401b0381111561122757600080fd5b61111184828501610f0e565b60006040828403121561124557600080fd5b61124d610e78565b905081356001600160401b038082111561126657600080fd5b611272858386016110bb565b8352602084013591508082111561128857600080fd5b50610fc984828501610f0e565b600082601f8301126112a657600080fd5b813560206112b661104d83611009565b82815260059290921b840181019181810190868411156112d557600080fd5b8286015b848110156110b05780356001600160401b038111156112f85760008081fd5b6113068986838b0101611233565b8452509183019183016112d9565b60006040828403121561132657600080fd5b61132e610e78565b905081356001600160401b038082111561134757600080fd5b611353858386016111dd565b8352602084013591508082111561136957600080fd5b50610fc984828501611295565b600082601f83011261138757600080fd5b8135602061139761104d83611009565b82815260059290921b840181019181810190868411156113b657600080fd5b8286015b848110156110b05780356001600160401b038111156113d95760008081fd5b6113e78986838b0101611314565b8452509183019183016113ba565b60006020828403121561140757600080fd5b81356001600160401b0381111561141d57600080fd5b61090384828501611376565b60006020828403121561143b57600080fd5b81356001600160401b0381111561145157600080fd5b61090384828501611314565b60006040828403121561146f57600080fd5b611477610e78565b9050813581526020820135602082015292915050565b60006060828403121561149f57600080fd5b6114a7610e78565b905081356001600160401b038111156114bf57600080fd5b6114cb84828501611376565b8252506114db836020840161145d565b602082015292915050565b6000602082840312156114f857600080fd5b81356001600160401b0381111561150e57600080fd5b6109038482850161148d565b60006020828403121561152c57600080fd5b81356001600160401b0381111561154257600080fd5b61090384828501611233565b60006040828403121561156057600080fd5b6105ac838361145d565b60006020828403121561157c57600080fd5b81356001600160401b0381111561159257600080fd5b61090384828501611295565b6000602082840312156115b057600080fd5b81356001600160401b038111156115c657600080fd5b6109038482850161102c565b600080604083850312156115e557600080fd5b6115ee83610ef2565b946020939093013593505050565b60006020828403121561160e57600080fd5b81356001600160401b0381111561162457600080fd5b610903848285016111dd565b60006040828403121561164257600080fd5b61164a610e78565b905081356001600160401b038082111561166357600080fd5b6112728583860161148d565b60006020828403121561168157600080fd5b81356001600160401b0381111561169757600080fd5b61090384828501611630565b600080600080608085870312156116b957600080fd5b84356001600160401b03808211156116d057600080fd5b6116dc88838901610f0e565b955060208701359150808211156116f257600080fd5b506116ff87828801610f0e565b9350506040850135915061171560608601610ef2565b905092959194509250565b634e487b7160e01b600052603260045260246000fd5b60008235603e1983360301811261174c57600080fd5b9190910192915050565b60006105af3683611630565b60008235605e1983360301811261174c57600080fd5b6000808335601e1984360301811261178f57600080fd5b8301803591506001600160401b038211156117a957600080fd5b6020019150600581901b360382131561119557600080fd5b634e487b7160e01b600052601160045260246000fd5b6000600182016117e9576117e96117c1565b5060010190565b60005b8381101561180b5781810151838201526020016117f3565b8381111561181a576000848401525b50505050565b600083516118328184602088016117f0565b9190910191825250602001919050565b60008219821115611855576118556117c1565b500190565b60006105af3683611314565b6000815180845261187e8160208601602086016117f0565b601f01601f19169290920160200192915050565b6060815260006118a56060830186611866565b828103602084015260018060a01b038551168152602085015160208201526040850151606060408301526118dc6060830182611866565b92505050826040830152949350505050565b60006020828403121561190057600080fd5b8151801515811461191057600080fd5b9392505050565b600061ffff80831681810361192e5761192e6117c1565b6001019392505050565b600060ff821660ff84168060ff03821115611955576119556117c1565b019392505050565b6000835161196f8184602088016117f0565b60609390931b6bffffffffffffffffffffffff1916919092019081526014019291505056fea2646970667358221220acb8e6c0ffff74f11d940e24fd6be2493d9536ba045b1f0d0138f230c66b071c64736f6c634300080f0033",
  "devdoc": {
    "kind": "dev",
    "methods": {
      "contractInvoke(((address,uint256,bytes),((address,bytes32,(address,bytes)[]),bytes)[])[])": {
        "params": {
          "batch": "Invocation[] - The batch of invocations to process."
        },
        "returns": {
          "_0": "success bool - Whether the batch of invocations was successfully processed."
        }
      },
      "getDelegationTypedDataHash((address,bytes32,(address,bytes)[]))": {
        "params": {
          "delegation": "Delegation - The delegation to get the type of"
        },
        "returns": {
          "_0": "bytes32 - The type of the delegation"
        }
      },
      "getInvocationsTypedDataHash((((address,uint256,bytes),((address,bytes32,(address,bytes)[]),bytes)[])[],(uint256,uint256)))": {
        "params": {
          "invocations": "Invocations"
        },
        "returns": {
          "_0": "bytes32 - The type of the Invocations"
        }
      },
      "invoke(((((address,uint256,bytes),((address,bytes32,(address,bytes)[]),bytes)[])[],(uint256,uint256)),bytes)[])": {
        "params": {
          "signedInvocations": "SignedInvocation[] - The batch of signed invocations to process."
        },
        "returns": {
          "success": "bool - Whether the batch of invocations was successfully processed."
        }
      },
      "verifyInvocationSignature(((((address,uint256,bytes),((address,bytes32,(address,bytes)[]),bytes)[])[],(uint256,uint256)),bytes))": {
        "params": {
          "signedInvocation": "- The signed invocation to verify"
        },
        "returns": {
          "_0": "address - The address of the account authorizing this invocation to act on its behalf."
        }
      }
    },
    "version": 1
  },
  "userdoc": {
    "kind": "user",
    "methods": {
      "constructor": {
        "notice": "Delegatable Relay Constructor"
      },
      "contractInvoke(((address,uint256,bytes),((address,bytes32,(address,bytes)[]),bytes)[])[])": {
        "notice": "Allows a smart contract to submit a batch of invocations for processing, allowing itself to be the delegate."
      },
      "domainHash()": {
        "notice": "The hash of the domain separator used in the EIP712 domain hash."
      },
      "getDelegationTypedDataHash((address,bytes32,(address,bytes)[]))": {
        "notice": "Returns the typehash for this contract's delegation signatures."
      },
      "getInvocationsTypedDataHash((((address,uint256,bytes),((address,bytes32,(address,bytes)[]),bytes)[])[],(uint256,uint256)))": {
        "notice": "Returns the typehash for this contract's invocation signatures."
      },
      "invoke(((((address,uint256,bytes),((address,bytes32,(address,bytes)[]),bytes)[])[],(uint256,uint256)),bytes)[])": {
        "notice": "Allows anyone to submit a batch of signed invocations for processing."
      },
      "verifyInvocationSignature(((((address,uint256,bytes),((address,bytes32,(address,bytes)[]),bytes)[])[],(uint256,uint256)),bytes))": {
        "notice": "Verifies that the given invocation is valid."
      }
    },
    "version": 1
  },
  "storageLayout": {
    "storage": [
      {
        "astId": 2075,
        "contract": "contracts/DelegatableRelay.sol:DelegatableRelay",
        "label": "multiNonce",
        "offset": 0,
        "slot": "0",
        "type": "t_mapping(t_address,t_mapping(t_uint256,t_uint256))"
      }
    ],
    "types": {
      "t_address": {
        "encoding": "inplace",
        "label": "address",
        "numberOfBytes": "20"
      },
      "t_mapping(t_address,t_mapping(t_uint256,t_uint256))": {
        "encoding": "mapping",
        "key": "t_address",
        "label": "mapping(address => mapping(uint256 => uint256))",
        "numberOfBytes": "32",
        "value": "t_mapping(t_uint256,t_uint256)"
      },
      "t_mapping(t_uint256,t_uint256)": {
        "encoding": "mapping",
        "key": "t_uint256",
        "label": "mapping(uint256 => uint256)",
        "numberOfBytes": "32",
        "value": "t_uint256"
      },
      "t_uint256": {
        "encoding": "inplace",
        "label": "uint256",
        "numberOfBytes": "32"
      }
    }
  }
}