{
  "address": "0x22B7922dEA4816799380B78944d45669a37f4e98",
  "abi": [
    {
      "inputs": [
        {
          "components": [
            {
              "internalType": "address",
              "name": "enforcer",
              "type": "address"
            },
            {
              "internalType": "bytes",
              "name": "terms",
              "type": "bytes"
            }
          ],
          "internalType": "struct Caveat[]",
          "name": "_input",
          "type": "tuple[]"
        }
      ],
      "name": "GET_CAVEAT_ARRAY_PACKETHASH",
      "outputs": [
        {
          "internalType": "bytes32",
          "name": "",
          "type": "bytes32"
        }
      ],
      "stateMutability": "pure",
      "type": "function"
    },
    {
      "inputs": [
        {
          "components": [
            {
              "internalType": "address",
              "name": "enforcer",
              "type": "address"
            },
            {
              "internalType": "bytes",
              "name": "terms",
              "type": "bytes"
            }
          ],
          "internalType": "struct Caveat",
          "name": "_input",
          "type": "tuple"
        }
      ],
      "name": "GET_CAVEAT_PACKETHASH",
      "outputs": [
        {
          "internalType": "bytes32",
          "name": "",
          "type": "bytes32"
        }
      ],
      "stateMutability": "pure",
      "type": "function"
    },
    {
      "inputs": [
        {
          "components": [
            {
              "internalType": "address",
              "name": "delegate",
              "type": "address"
            },
            {
              "internalType": "bytes32",
              "name": "authority",
              "type": "bytes32"
            },
            {
              "components": [
                {
                  "internalType": "address",
                  "name": "enforcer",
                  "type": "address"
                },
                {
                  "internalType": "bytes",
                  "name": "terms",
                  "type": "bytes"
                }
              ],
              "internalType": "struct Caveat[]",
              "name": "caveats",
              "type": "tuple[]"
            }
          ],
          "internalType": "struct Delegation",
          "name": "_input",
          "type": "tuple"
        }
      ],
      "name": "GET_DELEGATION_PACKETHASH",
      "outputs": [
        {
          "internalType": "bytes32",
          "name": "",
          "type": "bytes32"
        }
      ],
      "stateMutability": "pure",
      "type": "function"
    },
    {
      "inputs": [
        {
          "components": [
            {
              "components": [
                {
                  "components": [
                    {
                      "internalType": "address",
                      "name": "to",
                      "type": "address"
                    },
                    {
                      "internalType": "uint256",
                      "name": "gasLimit",
                      "type": "uint256"
                    },
                    {
                      "internalType": "bytes",
                      "name": "data",
                      "type": "bytes"
                    }
                  ],
                  "internalType": "struct Transaction",
                  "name": "transaction",
                  "type": "tuple"
                },
                {
                  "components": [
                    {
                      "components": [
                        {
                          "internalType": "address",
                          "name": "delegate",
                          "type": "address"
                        },
                        {
                          "internalType": "bytes32",
                          "name": "authority",
                          "type": "bytes32"
                        },
                        {
                          "components": [
                            {
                              "internalType": "address",
                              "name": "enforcer",
                              "type": "address"
                            },
                            {
                              "internalType": "bytes",
                              "name": "terms",
                              "type": "bytes"
                            }
                          ],
                          "internalType": "struct Caveat[]",
                          "name": "caveats",
                          "type": "tuple[]"
                        }
                      ],
                      "internalType": "struct Delegation",
                      "name": "delegation",
                      "type": "tuple"
                    },
                    {
                      "internalType": "bytes",
                      "name": "signature",
                      "type": "bytes"
                    }
                  ],
                  "internalType": "struct SignedDelegation[]",
                  "name": "authority",
                  "type": "tuple[]"
                }
              ],
              "internalType": "struct Invocation[]",
              "name": "batch",
              "type": "tuple[]"
            },
            {
              "components": [
                {
                  "internalType": "uint256",
                  "name": "nonce",
                  "type": "uint256"
                },
                {
                  "internalType": "uint256",
                  "name": "queue",
                  "type": "uint256"
                }
              ],
              "internalType": "struct ReplayProtection",
              "name": "replayProtection",
              "type": "tuple"
            }
          ],
          "internalType": "struct Invocations",
          "name": "_input",
          "type": "tuple"
        }
      ],
      "name": "GET_INVOCATIONS_PACKETHASH",
      "outputs": [
        {
          "internalType": "bytes32",
          "name": "",
          "type": "bytes32"
        }
      ],
      "stateMutability": "pure",
      "type": "function"
    },
    {
      "inputs": [
        {
          "components": [
            {
              "components": [
                {
                  "internalType": "address",
                  "name": "to",
                  "type": "address"
                },
                {
                  "internalType": "uint256",
                  "name": "gasLimit",
                  "type": "uint256"
                },
                {
                  "internalType": "bytes",
                  "name": "data",
                  "type": "bytes"
                }
              ],
              "internalType": "struct Transaction",
              "name": "transaction",
              "type": "tuple"
            },
            {
              "components": [
                {
                  "components": [
                    {
                      "internalType": "address",
                      "name": "delegate",
                      "type": "address"
                    },
                    {
                      "internalType": "bytes32",
                      "name": "authority",
                      "type": "bytes32"
                    },
                    {
                      "components": [
                        {
                          "internalType": "address",
                          "name": "enforcer",
                          "type": "address"
                        },
                        {
                          "internalType": "bytes",
                          "name": "terms",
                          "type": "bytes"
                        }
                      ],
                      "internalType": "struct Caveat[]",
                      "name": "caveats",
                      "type": "tuple[]"
                    }
                  ],
                  "internalType": "struct Delegation",
                  "name": "delegation",
                  "type": "tuple"
                },
                {
                  "internalType": "bytes",
                  "name": "signature",
                  "type": "bytes"
                }
              ],
              "internalType": "struct SignedDelegation[]",
              "name": "authority",
              "type": "tuple[]"
            }
          ],
          "internalType": "struct Invocation[]",
          "name": "_input",
          "type": "tuple[]"
        }
      ],
      "name": "GET_INVOCATION_ARRAY_PACKETHASH",
      "outputs": [
        {
          "internalType": "bytes32",
          "name": "",
          "type": "bytes32"
        }
      ],
      "stateMutability": "pure",
      "type": "function"
    },
    {
      "inputs": [
        {
          "components": [
            {
              "components": [
                {
                  "internalType": "address",
                  "name": "to",
                  "type": "address"
                },
                {
                  "internalType": "uint256",
                  "name": "gasLimit",
                  "type": "uint256"
                },
                {
                  "internalType": "bytes",
                  "name": "data",
                  "type": "bytes"
                }
              ],
              "internalType": "struct Transaction",
              "name": "transaction",
              "type": "tuple"
            },
            {
              "components": [
                {
                  "components": [
                    {
                      "internalType": "address",
                      "name": "delegate",
                      "type": "address"
                    },
                    {
                      "internalType": "bytes32",
                      "name": "authority",
                      "type": "bytes32"
                    },
                    {
                      "components": [
                        {
                          "internalType": "address",
                          "name": "enforcer",
                          "type": "address"
                        },
                        {
                          "internalType": "bytes",
                          "name": "terms",
                          "type": "bytes"
                        }
                      ],
                      "internalType": "struct Caveat[]",
                      "name": "caveats",
                      "type": "tuple[]"
                    }
                  ],
                  "internalType": "struct Delegation",
                  "name": "delegation",
                  "type": "tuple"
                },
                {
                  "internalType": "bytes",
                  "name": "signature",
                  "type": "bytes"
                }
              ],
              "internalType": "struct SignedDelegation[]",
              "name": "authority",
              "type": "tuple[]"
            }
          ],
          "internalType": "struct Invocation",
          "name": "_input",
          "type": "tuple"
        }
      ],
      "name": "GET_INVOCATION_PACKETHASH",
      "outputs": [
        {
          "internalType": "bytes32",
          "name": "",
          "type": "bytes32"
        }
      ],
      "stateMutability": "pure",
      "type": "function"
    },
    {
      "inputs": [
        {
          "components": [
            {
              "internalType": "uint256",
              "name": "nonce",
              "type": "uint256"
            },
            {
              "internalType": "uint256",
              "name": "queue",
              "type": "uint256"
            }
          ],
          "internalType": "struct ReplayProtection",
          "name": "_input",
          "type": "tuple"
        }
      ],
      "name": "GET_REPLAYPROTECTION_PACKETHASH",
      "outputs": [
        {
          "internalType": "bytes32",
          "name": "",
          "type": "bytes32"
        }
      ],
      "stateMutability": "pure",
      "type": "function"
    },
    {
      "inputs": [
        {
          "components": [
            {
              "components": [
                {
                  "internalType": "address",
                  "name": "delegate",
                  "type": "address"
                },
                {
                  "internalType": "bytes32",
                  "name": "authority",
                  "type": "bytes32"
                },
                {
                  "components": [
                    {
                      "internalType": "address",
                      "name": "enforcer",
                      "type": "address"
                    },
                    {
                      "internalType": "bytes",
                      "name": "terms",
                      "type": "bytes"
                    }
                  ],
                  "internalType": "struct Caveat[]",
                  "name": "caveats",
                  "type": "tuple[]"
                }
              ],
              "internalType": "struct Delegation",
              "name": "delegation",
              "type": "tuple"
            },
            {
              "internalType": "bytes",
              "name": "signature",
              "type": "bytes"
            }
          ],
          "internalType": "struct SignedDelegation[]",
          "name": "_input",
          "type": "tuple[]"
        }
      ],
      "name": "GET_SIGNEDDELEGATION_ARRAY_PACKETHASH",
      "outputs": [
        {
          "internalType": "bytes32",
          "name": "",
          "type": "bytes32"
        }
      ],
      "stateMutability": "pure",
      "type": "function"
    },
    {
      "inputs": [
        {
          "components": [
            {
              "components": [
                {
                  "internalType": "address",
                  "name": "delegate",
                  "type": "address"
                },
                {
                  "internalType": "bytes32",
                  "name": "authority",
                  "type": "bytes32"
                },
                {
                  "components": [
                    {
                      "internalType": "address",
                      "name": "enforcer",
                      "type": "address"
                    },
                    {
                      "internalType": "bytes",
                      "name": "terms",
                      "type": "bytes"
                    }
                  ],
                  "internalType": "struct Caveat[]",
                  "name": "caveats",
                  "type": "tuple[]"
                }
              ],
              "internalType": "struct Delegation",
              "name": "delegation",
              "type": "tuple"
            },
            {
              "internalType": "bytes",
              "name": "signature",
              "type": "bytes"
            }
          ],
          "internalType": "struct SignedDelegation",
          "name": "_input",
          "type": "tuple"
        }
      ],
      "name": "GET_SIGNEDDELEGATION_PACKETHASH",
      "outputs": [
        {
          "internalType": "bytes32",
          "name": "",
          "type": "bytes32"
        }
      ],
      "stateMutability": "pure",
      "type": "function"
    },
    {
      "inputs": [
        {
          "components": [
            {
              "internalType": "address",
              "name": "to",
              "type": "address"
            },
            {
              "internalType": "uint256",
              "name": "gasLimit",
              "type": "uint256"
            },
            {
              "internalType": "bytes",
              "name": "data",
              "type": "bytes"
            }
          ],
          "internalType": "struct Transaction",
          "name": "_input",
          "type": "tuple"
        }
      ],
      "name": "GET_TRANSACTION_PACKETHASH",
      "outputs": [
        {
          "internalType": "bytes32",
          "name": "",
          "type": "bytes32"
        }
      ],
      "stateMutability": "pure",
      "type": "function"
    },
    {
      "inputs": [
        {
          "components": [
            {
              "components": [
                {
                  "internalType": "address",
                  "name": "to",
                  "type": "address"
                },
                {
                  "internalType": "uint256",
                  "name": "gasLimit",
                  "type": "uint256"
                },
                {
                  "internalType": "bytes",
                  "name": "data",
                  "type": "bytes"
                }
              ],
              "internalType": "struct Transaction",
              "name": "transaction",
              "type": "tuple"
            },
            {
              "components": [
                {
                  "components": [
                    {
                      "internalType": "address",
                      "name": "delegate",
                      "type": "address"
                    },
                    {
                      "internalType": "bytes32",
                      "name": "authority",
                      "type": "bytes32"
                    },
                    {
                      "components": [
                        {
                          "internalType": "address",
                          "name": "enforcer",
                          "type": "address"
                        },
                        {
                          "internalType": "bytes",
                          "name": "terms",
                          "type": "bytes"
                        }
                      ],
                      "internalType": "struct Caveat[]",
                      "name": "caveats",
                      "type": "tuple[]"
                    }
                  ],
                  "internalType": "struct Delegation",
                  "name": "delegation",
                  "type": "tuple"
                },
                {
                  "internalType": "bytes",
                  "name": "signature",
                  "type": "bytes"
                }
              ],
              "internalType": "struct SignedDelegation[]",
              "name": "authority",
              "type": "tuple[]"
            }
          ],
          "internalType": "struct Invocation[]",
          "name": "batch",
          "type": "tuple[]"
        }
      ],
      "name": "contractInvoke",
      "outputs": [
        {
          "internalType": "bool",
          "name": "",
          "type": "bool"
        }
      ],
      "stateMutability": "nonpayable",
      "type": "function"
    },
    {
      "inputs": [
        {
          "components": [
            {
              "internalType": "address",
              "name": "delegate",
              "type": "address"
            },
            {
              "internalType": "bytes32",
              "name": "authority",
              "type": "bytes32"
            },
            {
              "components": [
                {
                  "internalType": "address",
                  "name": "enforcer",
                  "type": "address"
                },
                {
                  "internalType": "bytes",
                  "name": "terms",
                  "type": "bytes"
                }
              ],
              "internalType": "struct Caveat[]",
              "name": "caveats",
              "type": "tuple[]"
            }
          ],
          "internalType": "struct Delegation",
          "name": "delegation",
          "type": "tuple"
        }
      ],
      "name": "getDelegationTypedDataHash",
      "outputs": [
        {
          "internalType": "bytes32",
          "name": "",
          "type": "bytes32"
        }
      ],
      "stateMutability": "view",
      "type": "function"
    },
    {
      "inputs": [],
      "name": "getEIP712DomainHash",
      "outputs": [
        {
          "internalType": "bytes32",
          "name": "",
          "type": "bytes32"
        }
      ],
      "stateMutability": "view",
      "type": "function"
    },
    {
      "inputs": [
        {
          "internalType": "string",
          "name": "contractName",
          "type": "string"
        },
        {
          "internalType": "string",
          "name": "version",
          "type": "string"
        },
        {
          "internalType": "uint256",
          "name": "chainId",
          "type": "uint256"
        },
        {
          "internalType": "address",
          "name": "verifyingContract",
          "type": "address"
        }
      ],
      "name": "getEIP712DomainHash",
      "outputs": [
        {
          "internalType": "bytes32",
          "name": "",
          "type": "bytes32"
        }
      ],
      "stateMutability": "pure",
      "type": "function"
    },
    {
      "inputs": [
        {
          "components": [
            {
              "components": [
                {
                  "components": [
                    {
                      "internalType": "address",
                      "name": "to",
                      "type": "address"
                    },
                    {
                      "internalType": "uint256",
                      "name": "gasLimit",
                      "type": "uint256"
                    },
                    {
                      "internalType": "bytes",
                      "name": "data",
                      "type": "bytes"
                    }
                  ],
                  "internalType": "struct Transaction",
                  "name": "transaction",
                  "type": "tuple"
                },
                {
                  "components": [
                    {
                      "components": [
                        {
                          "internalType": "address",
                          "name": "delegate",
                          "type": "address"
                        },
                        {
                          "internalType": "bytes32",
                          "name": "authority",
                          "type": "bytes32"
                        },
                        {
                          "components": [
                            {
                              "internalType": "address",
                              "name": "enforcer",
                              "type": "address"
                            },
                            {
                              "internalType": "bytes",
                              "name": "terms",
                              "type": "bytes"
                            }
                          ],
                          "internalType": "struct Caveat[]",
                          "name": "caveats",
                          "type": "tuple[]"
                        }
                      ],
                      "internalType": "struct Delegation",
                      "name": "delegation",
                      "type": "tuple"
                    },
                    {
                      "internalType": "bytes",
                      "name": "signature",
                      "type": "bytes"
                    }
                  ],
                  "internalType": "struct SignedDelegation[]",
                  "name": "authority",
                  "type": "tuple[]"
                }
              ],
              "internalType": "struct Invocation[]",
              "name": "batch",
              "type": "tuple[]"
            },
            {
              "components": [
                {
                  "internalType": "uint256",
                  "name": "nonce",
                  "type": "uint256"
                },
                {
                  "internalType": "uint256",
                  "name": "queue",
                  "type": "uint256"
                }
              ],
              "internalType": "struct ReplayProtection",
              "name": "replayProtection",
              "type": "tuple"
            }
          ],
          "internalType": "struct Invocations",
          "name": "invocations",
          "type": "tuple"
        }
      ],
      "name": "getInvocationsTypedDataHash",
      "outputs": [
        {
          "internalType": "bytes32",
          "name": "",
          "type": "bytes32"
        }
      ],
      "stateMutability": "view",
      "type": "function"
    },
    {
      "inputs": [
        {
          "internalType": "address",
          "name": "intendedSender",
          "type": "address"
        },
        {
          "internalType": "uint256",
          "name": "queue",
          "type": "uint256"
        }
      ],
      "name": "getNonce",
      "outputs": [
        {
          "internalType": "uint256",
          "name": "",
          "type": "uint256"
        }
      ],
      "stateMutability": "view",
      "type": "function"
    },
    {
      "inputs": [
        {
          "components": [
            {
              "components": [
                {
                  "components": [
                    {
                      "components": [
                        {
                          "internalType": "address",
                          "name": "to",
                          "type": "address"
                        },
                        {
                          "internalType": "uint256",
                          "name": "gasLimit",
                          "type": "uint256"
                        },
                        {
                          "internalType": "bytes",
                          "name": "data",
                          "type": "bytes"
                        }
                      ],
                      "internalType": "struct Transaction",
                      "name": "transaction",
                      "type": "tuple"
                    },
                    {
                      "components": [
                        {
                          "components": [
                            {
                              "internalType": "address",
                              "name": "delegate",
                              "type": "address"
                            },
                            {
                              "internalType": "bytes32",
                              "name": "authority",
                              "type": "bytes32"
                            },
                            {
                              "components": [
                                {
                                  "internalType": "address",
                                  "name": "enforcer",
                                  "type": "address"
                                },
                                {
                                  "internalType": "bytes",
                                  "name": "terms",
                                  "type": "bytes"
                                }
                              ],
                              "internalType": "struct Caveat[]",
                              "name": "caveats",
                              "type": "tuple[]"
                            }
                          ],
                          "internalType": "struct Delegation",
                          "name": "delegation",
                          "type": "tuple"
                        },
                        {
                          "internalType": "bytes",
                          "name": "signature",
                          "type": "bytes"
                        }
                      ],
                      "internalType": "struct SignedDelegation[]",
                      "name": "authority",
                      "type": "tuple[]"
                    }
                  ],
                  "internalType": "struct Invocation[]",
                  "name": "batch",
                  "type": "tuple[]"
                },
                {
                  "components": [
                    {
                      "internalType": "uint256",
                      "name": "nonce",
                      "type": "uint256"
                    },
                    {
                      "internalType": "uint256",
                      "name": "queue",
                      "type": "uint256"
                    }
                  ],
                  "internalType": "struct ReplayProtection",
                  "name": "replayProtection",
                  "type": "tuple"
                }
              ],
              "internalType": "struct Invocations",
              "name": "invocations",
              "type": "tuple"
            },
            {
              "internalType": "bytes",
              "name": "signature",
              "type": "bytes"
            }
          ],
          "internalType": "struct SignedInvocation[]",
          "name": "signedInvocations",
          "type": "tuple[]"
        }
      ],
      "name": "invoke",
      "outputs": [
        {
          "internalType": "bool",
          "name": "success",
          "type": "bool"
        }
      ],
      "stateMutability": "nonpayable",
      "type": "function"
    },
    {
      "inputs": [
        {
          "internalType": "string",
          "name": "contractName",
          "type": "string"
        }
      ],
      "name": "setDomainHash",
      "outputs": [],
      "stateMutability": "nonpayable",
      "type": "function"
    },
    {
      "inputs": [
        {
          "components": [
            {
              "components": [
                {
                  "internalType": "address",
                  "name": "delegate",
                  "type": "address"
                },
                {
                  "internalType": "bytes32",
                  "name": "authority",
                  "type": "bytes32"
                },
                {
                  "components": [
                    {
                      "internalType": "address",
                      "name": "enforcer",
                      "type": "address"
                    },
                    {
                      "internalType": "bytes",
                      "name": "terms",
                      "type": "bytes"
                    }
                  ],
                  "internalType": "struct Caveat[]",
                  "name": "caveats",
                  "type": "tuple[]"
                }
              ],
              "internalType": "struct Delegation",
              "name": "delegation",
              "type": "tuple"
            },
            {
              "internalType": "bytes",
              "name": "signature",
              "type": "bytes"
            }
          ],
          "internalType": "struct SignedDelegation",
          "name": "signedDelegation",
          "type": "tuple"
        }
      ],
      "name": "verifyDelegationSignature",
      "outputs": [
        {
          "internalType": "address",
          "name": "",
          "type": "address"
        }
      ],
      "stateMutability": "view",
      "type": "function"
    },
    {
      "inputs": [
        {
          "components": [
            {
              "components": [
                {
                  "components": [
                    {
                      "components": [
                        {
                          "internalType": "address",
                          "name": "to",
                          "type": "address"
                        },
                        {
                          "internalType": "uint256",
                          "name": "gasLimit",
                          "type": "uint256"
                        },
                        {
                          "internalType": "bytes",
                          "name": "data",
                          "type": "bytes"
                        }
                      ],
                      "internalType": "struct Transaction",
                      "name": "transaction",
                      "type": "tuple"
                    },
                    {
                      "components": [
                        {
                          "components": [
                            {
                              "internalType": "address",
                              "name": "delegate",
                              "type": "address"
                            },
                            {
                              "internalType": "bytes32",
                              "name": "authority",
                              "type": "bytes32"
                            },
                            {
                              "components": [
                                {
                                  "internalType": "address",
                                  "name": "enforcer",
                                  "type": "address"
                                },
                                {
                                  "internalType": "bytes",
                                  "name": "terms",
                                  "type": "bytes"
                                }
                              ],
                              "internalType": "struct Caveat[]",
                              "name": "caveats",
                              "type": "tuple[]"
                            }
                          ],
                          "internalType": "struct Delegation",
                          "name": "delegation",
                          "type": "tuple"
                        },
                        {
                          "internalType": "bytes",
                          "name": "signature",
                          "type": "bytes"
                        }
                      ],
                      "internalType": "struct SignedDelegation[]",
                      "name": "authority",
                      "type": "tuple[]"
                    }
                  ],
                  "internalType": "struct Invocation[]",
                  "name": "batch",
                  "type": "tuple[]"
                },
                {
                  "components": [
                    {
                      "internalType": "uint256",
                      "name": "nonce",
                      "type": "uint256"
                    },
                    {
                      "internalType": "uint256",
                      "name": "queue",
                      "type": "uint256"
                    }
                  ],
                  "internalType": "struct ReplayProtection",
                  "name": "replayProtection",
                  "type": "tuple"
                }
              ],
              "internalType": "struct Invocations",
              "name": "invocations",
              "type": "tuple"
            },
            {
              "internalType": "bytes",
              "name": "signature",
              "type": "bytes"
            }
          ],
          "internalType": "struct SignedInvocation",
          "name": "signedInvocation",
          "type": "tuple"
        }
      ],
      "name": "verifyInvocationSignature",
      "outputs": [
        {
          "internalType": "address",
          "name": "",
          "type": "address"
        }
      ],
      "stateMutability": "view",
      "type": "function"
    }
  ],
  "transactionHash": "0x67840f085024761f55889d371740df2045ad7e78afcf9082bb0326c65342d7e6",
  "args": [],
  "numDeployments": 1,
  "solcInputHash": "9434a8c86af30d9c166c7025f6db4f22",
  "bytecode": "0x608060405234801561001057600080fd5b50611b26806100206000396000f3fe608060405234801561001057600080fd5b506004361061012c5760003560e01c8063736f7ce7116100ad57806397182ed61161007157806397182ed61461029f578063a2e01f75146102b2578063caced6c5146102c5578063d327c1eb146102d8578063dfd4f1e4146102eb57600080fd5b8063736f7ce7146102125780637b577b581461022557806383e9c7b41461023857806389535803146102405780638a04499e1461027457600080fd5b80635cf1b24a116100f45780635cf1b24a146101b357806360b6d768146101c65780636c2b1253146101d95780636f965803146101ec5780637234eefe146101ff57600080fd5b806308aaf6b0146101315780632f52a2fd146101575780632fad7efc1461016a5780633a4818211461018d5780635c6d9f0c146101a0575b600080fd5b61014461013f3660046110c0565b610300565b6040519081526020015b60405180910390f35b610144610165366004611208565b610380565b61017d610178366004611287565b6103eb565b604051901515815260200161014e565b61014461019b3660046114e0565b6104b2565b61017d6101ae366004611287565b610529565b6101446101c1366004611514565b61053f565b6101446101d43660046115d1565b61059c565b6101446101e7366004611605565b6105d3565b6101446101fa366004611639565b610630565b61014461020d3660046115d1565b610681565b610144610220366004611655565b6106bf565b610144610233366004611689565b610727565b61014461078f565b61014461024e3660046116bd565b6001600160a01b0391909116600090815260208181526040808320938352929052205490565b610287610282366004611605565b6107e4565b6040516001600160a01b03909116815260200161014e565b6101446102ad366004611208565b61080e565b6101446102c03660046116e7565b610822565b6102876102d336600461175a565b61088e565b6101446102e636600461178e565b6108b8565b6102fe6102f936600461180b565b610934565b005b6000807f80ad7e1b04ee6d994a125f4714ca0720908bd80ed16063ec8aee4b88e9253e2d8360000151846020015180519060200120604051602001610361939291909283526001600160a01b03919091166020830152604082015260600190565b60408051601f1981840301815291905280516020909101209392505050565b6000807f409f5114779a253e700d775d7845e6efc1e83685ac59868d2df3d4de51c7d621836000015184602001516103bb8660400151610727565b6040805160208101959095526001600160a01b03909316928401929092526060830152608082015260a001610361565b6000805b828110156104ab573684848381811061040a5761040a61187c565b905060200281019061041c9190611892565b9050600061042c6102d3836118b2565b9050610478818787868181106104445761044461187c565b90506020028101906104569190611892565b61046090806118be565b6020018036038101906104739190611639565b610995565b61049561048583806118be565b61048f90806118d4565b83610a4f565b50505080806104a390611933565b9150506103ef565b5092915050565b6000606060005b835181101561051a57816104e58583815181106104d8576104d861187c565b602002602001015161053f565b6040516020016104f692919061197c565b6040516020818303038152906040529150808061051290611933565b9150506104b9565b50805160209091012092915050565b6000610536838333610a4f565b90505b92915050565b6000807fd97dd99b404d177890f06a8f0fc8e5ed0333fb2ebb6684360709066e8984f5946105708460000151610822565b61057d85602001516106bf565b6040805160208101949094528301919091526060820152608001610361565b6000806105a761078f565b6105b084610681565b60405161190160f01b602082015260228101929092526042820152606201610361565b6000807f3c36a06e1d288b0f94f565588317a46ad11bc3c96992109f9a2365a2737259a76106048460000151610380565b602080860151805190820120604051610361949392019283526020830191909152604082015260600190565b6000807fe8d3d963b33868fb116316bc3fd55e8f49123f30e4418f71e140d54b7cd3b2b983600001518460200151604051602001610361939291909283526020830191909152604082015260600190565b6000807f08c69a206c06f5334b35ceb1186181a713b21aff02cf66285f375084fbef2eb86106b284600001516104b2565b61057d8560200151610630565b6000606060005b835181101561051a57816106f28583815181106106e5576106e561187c565b60200260200101516105d3565b60405160200161070392919061197c565b6040516020818303038152906040529150808061071f90611933565b9150506106c6565b6000606060005b835181101561051a578161075a85838151811061074d5761074d61187c565b6020026020010151610300565b60405160200161076b92919061197c565b6040516020818303038152906040529150808061078790611933565b91505061072e565b6001546000908082036107df5760405162461bcd60e51b8152602060048201526013602482015272111bdb585a5b881a185cda081b9bdd081cd95d606a1b60448201526064015b60405180910390fd5b919050565b8051600090816107f38261080e565b90506000610805828660200151610e3c565b95945050505050565b60008061081961078f565b6105b084610380565b6000807fb16dfdb3b8fa033fe30ac976cd4a50ad256b6811c80d90fcd0b323eec190047d8360000151846020015185604001518051906020012060405160200161036194939291909384526001600160a01b039290921660208401526040830152606082015260800190565b60008061089e836000015161059c565b905060006108b0828560200151610e3c565b949350505050565b8351602094850120835193850193909320604080517f8b73c3c69bb8fe3d512ecc4cf759cc79239f7b179b0ffacaa9a75d522b39400f8188015280820195909552606085019190915260808401929092526001600160a01b031660a0808401919091528151808403909101815260c09092019052805191012090565b61098e82828080601f016020809104026020016040519081016040528093929190818152602001838380828437600092019190915250506040805180820190915260018152603160f81b60208201529150469050306108b8565b6001555050565b60208082015182516001600160a01b0385166000908152808452604080822084835290945292909220549091906109cd90600161199e565b8114610a275760405162461bcd60e51b815260206004820152602360248201527f44656c6567617461626c65436f72653a6e6f6e6365322d6f75742d6f662d6f726044820152623232b960e91b60648201526084016107d6565b6001600160a01b03909316600090815260208181526040808320938352929052209190915550565b6000805b83811015610e34576000858583818110610a6f57610a6f61187c565b9050602002810190610a819190611892565b610a8a906119b6565b9050600080826020015151600003610aa25750849050805b6000805b846020015151811015610d3d57600085602001518281518110610acb57610acb61187c565b602002602001015190506000610ae0826107e4565b905082600003610af1578095508594505b846001600160a01b0316816001600160a01b031614610b645760405162461bcd60e51b815260206004820152602960248201527f44656c6567617461626c65436f72653a696e76616c69642d64656c656761746960448201526837b716b9b4b3b732b960b91b60648201526084016107d6565b815160208101518514610bd35760405162461bcd60e51b815260206004820152603160248201527f44656c6567617461626c65436f72653a696e76616c69642d617574686f726974604482015270792d64656c65676174696f6e2d6c696e6b60781b60648201526084016107d6565b6000610bde846105d3565b905060005b8260400151518161ffff161015610d2057600083604001518261ffff1681518110610c1057610c1061187c565b60200260200101516000015190506000816001600160a01b0316635068de4c86604001518561ffff1681518110610c4957610c4961187c565b6020026020010151602001518e60000151876040518463ffffffff1660e01b8152600401610c79939291906119ee565b6020604051808303816000875af1158015610c98573d6000803e3d6000fd5b505050506040513d601f19601f82011682018060405250810190610cbc9190611a4a565b905080610d0b5760405162461bcd60e51b815260206004820152601f60248201527f44656c6567617461626c65436f72653a6361766561742d72656a65637465640060448201526064016107d6565b50508080610d1890611a73565b915050610be3565b50905195509350829150610d35905081611933565b915050610aa6565b50835180516001600160a01b03163014610dab5760405162461bcd60e51b815260206004820152602960248201527f44656c6567617461626c65436f72653a696e76616c69642d696e766f636174696044820152681bdb8b5d185c99d95d60ba1b60648201526084016107d6565b610dc381600001518260400151836020015187610f13565b965086610e1c5760405162461bcd60e51b815260206004820152602160248201527f44656c6567617461626c65436f72653a3a657865637574696f6e2d6661696c656044820152601960fa1b60648201526084016107d6565b50505050508080610e2c90611933565b915050610a53565b509392505050565b6000806000808451604114610e575760009350505050610539565b50505060208201516040830151606084015160001a601b811015610e8357610e80601b82611a94565b90505b8060ff16601b14158015610e9b57508060ff16601c14155b15610eac5760009350505050610539565b60408051600081526020810180835288905260ff831691810191909152606081018490526080810183905260019060a0016020604051602081039080840390855afa158015610eff573d6000803e3d6000fd5b505050602060405103519350505050610539565b6000808483604051602001610f29929190611ab9565b604051602081830303815290604052905060008082516020840160008a89f19695505050505050565b634e487b7160e01b600052604160045260246000fd5b604080519081016001600160401b0381118282101715610f8a57610f8a610f52565b60405290565b604051606081016001600160401b0381118282101715610f8a57610f8a610f52565b604051601f8201601f191681016001600160401b0381118282101715610fda57610fda610f52565b604052919050565b80356001600160a01b03811681146107df57600080fd5b600082601f83011261100a57600080fd5b81356001600160401b0381111561102357611023610f52565b611036601f8201601f1916602001610fb2565b81815284602083860101111561104b57600080fd5b816020850160208301376000918101602001919091529392505050565b60006040828403121561107a57600080fd5b611082610f68565b905061108d82610fe2565b815260208201356001600160401b038111156110a857600080fd5b6110b484828501610ff9565b60208301525092915050565b6000602082840312156110d257600080fd5b81356001600160401b038111156110e857600080fd5b6108b084828501611068565b60006001600160401b0382111561110d5761110d610f52565b5060051b60200190565b600082601f83011261112857600080fd5b8135602061113d611138836110f4565b610fb2565b82815260059290921b8401810191818101908684111561115c57600080fd5b8286015b8481101561119b5780356001600160401b0381111561117f5760008081fd5b61118d8986838b0101611068565b845250918301918301611160565b509695505050505050565b6000606082840312156111b857600080fd5b6111c0610f90565b90506111cb82610fe2565b81526020820135602082015260408201356001600160401b038111156111f057600080fd5b6111fc84828501611117565b60408301525092915050565b60006020828403121561121a57600080fd5b81356001600160401b0381111561123057600080fd5b6108b0848285016111a6565b60008083601f84011261124e57600080fd5b5081356001600160401b0381111561126557600080fd5b6020830191508360208260051b850101111561128057600080fd5b9250929050565b6000806020838503121561129a57600080fd5b82356001600160401b038111156112b057600080fd5b6112bc8582860161123c565b90969095509350505050565b6000606082840312156112da57600080fd5b6112e2610f90565b90506112ed82610fe2565b81526020820135602082015260408201356001600160401b0381111561131257600080fd5b6111fc84828501610ff9565b60006040828403121561133057600080fd5b611338610f68565b905081356001600160401b038082111561135157600080fd5b61135d858386016111a6565b8352602084013591508082111561137357600080fd5b506110b484828501610ff9565b600082601f83011261139157600080fd5b813560206113a1611138836110f4565b82815260059290921b840181019181810190868411156113c057600080fd5b8286015b8481101561119b5780356001600160401b038111156113e35760008081fd5b6113f18986838b010161131e565b8452509183019183016113c4565b60006040828403121561141157600080fd5b611419610f68565b905081356001600160401b038082111561143257600080fd5b61143e858386016112c8565b8352602084013591508082111561145457600080fd5b506110b484828501611380565b600082601f83011261147257600080fd5b81356020611482611138836110f4565b82815260059290921b840181019181810190868411156114a157600080fd5b8286015b8481101561119b5780356001600160401b038111156114c45760008081fd5b6114d28986838b01016113ff565b8452509183019183016114a5565b6000602082840312156114f257600080fd5b81356001600160401b0381111561150857600080fd5b6108b084828501611461565b60006020828403121561152657600080fd5b81356001600160401b0381111561153c57600080fd5b6108b0848285016113ff565b60006040828403121561155a57600080fd5b611562610f68565b9050813581526020820135602082015292915050565b60006060828403121561158a57600080fd5b611592610f68565b905081356001600160401b038111156115aa57600080fd5b6115b684828501611461565b8252506115c68360208401611548565b602082015292915050565b6000602082840312156115e357600080fd5b81356001600160401b038111156115f957600080fd5b6108b084828501611578565b60006020828403121561161757600080fd5b81356001600160401b0381111561162d57600080fd5b6108b08482850161131e565b60006040828403121561164b57600080fd5b6105368383611548565b60006020828403121561166757600080fd5b81356001600160401b0381111561167d57600080fd5b6108b084828501611380565b60006020828403121561169b57600080fd5b81356001600160401b038111156116b157600080fd5b6108b084828501611117565b600080604083850312156116d057600080fd5b6116d983610fe2565b946020939093013593505050565b6000602082840312156116f957600080fd5b81356001600160401b0381111561170f57600080fd5b6108b0848285016112c8565b60006040828403121561172d57600080fd5b611735610f68565b905081356001600160401b038082111561174e57600080fd5b61135d85838601611578565b60006020828403121561176c57600080fd5b81356001600160401b0381111561178257600080fd5b6108b08482850161171b565b600080600080608085870312156117a457600080fd5b84356001600160401b03808211156117bb57600080fd5b6117c788838901610ff9565b955060208701359150808211156117dd57600080fd5b506117ea87828801610ff9565b9350506040850135915061180060608601610fe2565b905092959194509250565b6000806020838503121561181e57600080fd5b82356001600160401b038082111561183557600080fd5b818501915085601f83011261184957600080fd5b81358181111561185857600080fd5b86602082850101111561186a57600080fd5b60209290920196919550909350505050565b634e487b7160e01b600052603260045260246000fd5b60008235603e198336030181126118a857600080fd5b9190910192915050565b6000610539368361171b565b60008235605e198336030181126118a857600080fd5b6000808335601e198436030181126118eb57600080fd5b8301803591506001600160401b0382111561190557600080fd5b6020019150600581901b360382131561128057600080fd5b634e487b7160e01b600052601160045260246000fd5b6000600182016119455761194561191d565b5060010190565b60005b8381101561196757818101518382015260200161194f565b83811115611976576000848401525b50505050565b6000835161198e81846020880161194c565b9190910191825250602001919050565b600082198211156119b1576119b161191d565b500190565b600061053936836113ff565b600081518084526119da81602086016020860161194c565b601f01601f19169290920160200192915050565b606081526000611a0160608301866119c2565b828103602084015260018060a01b03855116815260208501516020820152604085015160606040830152611a3860608301826119c2565b92505050826040830152949350505050565b600060208284031215611a5c57600080fd5b81518015158114611a6c57600080fd5b9392505050565b600061ffff808316818103611a8a57611a8a61191d565b6001019392505050565b600060ff821660ff84168060ff03821115611ab157611ab161191d565b019392505050565b60008351611acb81846020880161194c565b60609390931b6bffffffffffffffffffffffff1916919092019081526014019291505056fea264697066735822122004a7c7b04344132fb5edcaaf561ee9996fc7cdba5ef3f92f20052902c40cc1c264736f6c634300080f0033",
  "devdoc": {
    "kind": "dev",
    "methods": {
      "contractInvoke(((address,uint256,bytes),((address,bytes32,(address,bytes)[]),bytes)[])[])": {
        "params": {
          "batch": "Invocation[] - The batch of invocations to process."
        },
        "returns": {
          "_0": "success bool - Whether the batch of invocations was successfully processed."
        }
      },
      "getDelegationTypedDataHash((address,bytes32,(address,bytes)[]))": {
        "params": {
          "delegation": "Delegation - The delegation to get the type of"
        },
        "returns": {
          "_0": "bytes32 - The type of the delegation"
        }
      },
      "getEIP712DomainHash()": {
        "returns": {
          "_0": "bytes32 - The domain hash of the calling contract."
        }
      },
      "getInvocationsTypedDataHash((((address,uint256,bytes),((address,bytes32,(address,bytes)[]),bytes)[])[],(uint256,uint256)))": {
        "params": {
          "invocations": "Invocations"
        },
        "returns": {
          "_0": "bytes32 - The type of the Invocations"
        }
      },
      "invoke(((((address,uint256,bytes),((address,bytes32,(address,bytes)[]),bytes)[])[],(uint256,uint256)),bytes)[])": {
        "params": {
          "signedInvocations": "SignedInvocation[] - The batch of signed invocations to process."
        },
        "returns": {
          "success": "bool - Whether the batch of invocations was successfully processed."
        }
      }
    },
    "version": 1
  },
  "userdoc": {
    "kind": "user",
    "methods": {
      "contractInvoke(((address,uint256,bytes),((address,bytes32,(address,bytes)[]),bytes)[])[])": {
        "notice": "Submits a batch of signed delegations for processing."
      },
      "getDelegationTypedDataHash((address,bytes32,(address,bytes)[]))": {
        "notice": "Get Delegation type"
      },
      "getEIP712DomainHash()": {
        "notice": "Domain Hash Getter"
      },
      "getInvocationsTypedDataHash((((address,uint256,bytes),((address,bytes32,(address,bytes)[]),bytes)[])[],(uint256,uint256)))": {
        "notice": "Get Delegation type"
      },
      "invoke(((((address,uint256,bytes),((address,bytes32,(address,bytes)[]),bytes)[])[],(uint256,uint256)),bytes)[])": {
        "notice": "Submits a batch of signed invocations for processing."
      },
      "setDomainHash(string)": {
        "notice": "Typehash Initializer - To be called by a diamond after facet assignment. Yes, anyone can assign the facet's own name, but it doesn't do anything, so it's fine."
      }
    },
    "version": 1
  },
  "storageLayout": {
    "storage": [
      {
        "astId": 1127,
        "contract": "contracts/DelegatableFacet.sol:DelegatableFacet",
        "label": "multiNonce",
        "offset": 0,
        "slot": "0",
        "type": "t_mapping(t_address,t_mapping(t_uint256,t_uint256))"
      },
      {
        "astId": 1487,
        "contract": "contracts/DelegatableFacet.sol:DelegatableFacet",
        "label": "s",
        "offset": 0,
        "slot": "1",
        "type": "t_struct(AppStorage)1480_storage"
      }
    ],
    "types": {
      "t_address": {
        "encoding": "inplace",
        "label": "address",
        "numberOfBytes": "20"
      },
      "t_bytes32": {
        "encoding": "inplace",
        "label": "bytes32",
        "numberOfBytes": "32"
      },
      "t_mapping(t_address,t_mapping(t_uint256,t_uint256))": {
        "encoding": "mapping",
        "key": "t_address",
        "label": "mapping(address => mapping(uint256 => uint256))",
        "numberOfBytes": "32",
        "value": "t_mapping(t_uint256,t_uint256)"
      },
      "t_mapping(t_uint256,t_uint256)": {
        "encoding": "mapping",
        "key": "t_uint256",
        "label": "mapping(uint256 => uint256)",
        "numberOfBytes": "32",
        "value": "t_uint256"
      },
      "t_struct(AppStorage)1480_storage": {
        "encoding": "inplace",
        "label": "struct AppStorage",
        "members": [
          {
            "astId": 1479,
            "contract": "contracts/DelegatableFacet.sol:DelegatableFacet",
            "label": "eip712domainTypeHash",
            "offset": 0,
            "slot": "0",
            "type": "t_bytes32"
          }
        ],
        "numberOfBytes": "32"
      },
      "t_uint256": {
        "encoding": "inplace",
        "label": "uint256",
        "numberOfBytes": "32"
      }
    }
  }
}