{
  "address": "0x8A9580D279e354eF2628dA5fC3Cdad6701b6cff3",
  "abi": [
    {
      "inputs": [
        {
          "internalType": "bytes",
          "name": "terms",
          "type": "bytes"
        },
        {
          "components": [
            {
              "internalType": "address",
              "name": "to",
              "type": "address"
            },
            {
              "internalType": "uint256",
              "name": "gasLimit",
              "type": "uint256"
            },
            {
              "internalType": "bytes",
              "name": "data",
              "type": "bytes"
            }
          ],
          "internalType": "struct Transaction",
          "name": "transaction",
          "type": "tuple"
        },
        {
          "internalType": "bytes32",
          "name": "delegationHash",
          "type": "bytes32"
        }
      ],
      "name": "enforceCaveat",
      "outputs": [
        {
          "internalType": "bool",
          "name": "",
          "type": "bool"
        }
      ],
      "stateMutability": "nonpayable",
      "type": "function"
    }
  ],
  "transactionHash": "0x6a64f46aff2236aab6bd5bc77e677be97e2579211b4ab45aafcb7635f93f0a8e",
  "args": [],
  "numDeployments": 1,
  "solcInputHash": "9434a8c86af30d9c166c7025f6db4f22",
  "bytecode": "0x608060405234801561001057600080fd5b50610447806100206000396000f3fe608060405234801561001057600080fd5b506004361061002b5760003560e01c80635068de4c14610030575b600080fd5b61004361003e3660046102a2565b610057565b604051901515815260200160405180910390f35b6000806100676040850185610343565b61007691600491600091610391565b61007f916103bb565b905063a9059cbb60e01b6001600160e01b0319821681146100f55760405162461bcd60e51b815260206004820152602560248201527f4552433230416c6c6f77616e6365456e666f726365723a696e76616c69642d6d604482015264195d1a1bd960da1b60648201526084015b60405180910390fd5b600061013688888080601f01602080910402602001604051908101604052809392919081815260200183838082843760009201829052509250610244915050565b9050600061018761014a6040890189610343565b8080601f01602080910402602001604051908101604052809392919081815260200183838082843760009201919091525060249250610244915050565b336000908152602081815260408083208a84529091528120805492935083929091906101b49084906103eb565b909155505033600090815260208181526040808320898452909152902054828111156102345760405162461bcd60e51b815260206004820152602960248201527f4552433230416c6c6f77616e6365456e666f726365723a616c6c6f77616e63656044820152680b595e18d95959195960ba1b60648201526084016100ec565b5060019998505050505050505050565b60006102518260206103eb565b835110156102995760405162461bcd60e51b8152602060048201526015602482015274746f55696e743235365f6f75744f66426f756e647360581b60448201526064016100ec565b50016020015190565b600080600080606085870312156102b857600080fd5b843567ffffffffffffffff808211156102d057600080fd5b818701915087601f8301126102e457600080fd5b8135818111156102f357600080fd5b88602082850101111561030557600080fd5b60209283019650945090860135908082111561032057600080fd5b5085016060818803121561033357600080fd5b9396929550929360400135925050565b6000808335601e1984360301811261035a57600080fd5b83018035915067ffffffffffffffff82111561037557600080fd5b60200191503681900382131561038a57600080fd5b9250929050565b600080858511156103a157600080fd5b838611156103ae57600080fd5b5050820193919092039150565b6001600160e01b031981358181169160048510156103e35780818660040360031b1b83161692505b505092915050565b6000821982111561040c57634e487b7160e01b600052601160045260246000fd5b50019056fea264697066735822122040729b4922bf05edfbe4a4591d888f28319b9b049d6b48cc44cb7a65dd944e6164736f6c634300080f0033",
  "devdoc": {
    "kind": "dev",
    "methods": {},
    "version": 1
  },
  "userdoc": {
    "kind": "user",
    "methods": {},
    "version": 1
  },
  "storageLayout": {
    "storage": [
      {
        "astId": 3817,
        "contract": "contracts/enforcers/ERC20AllowanceEnforcer.sol:ERC20AllowanceEnforcer",
        "label": "spentMap",
        "offset": 0,
        "slot": "0",
        "type": "t_mapping(t_address,t_mapping(t_bytes32,t_uint256))"
      }
    ],
    "types": {
      "t_address": {
        "encoding": "inplace",
        "label": "address",
        "numberOfBytes": "20"
      },
      "t_bytes32": {
        "encoding": "inplace",
        "label": "bytes32",
        "numberOfBytes": "32"
      },
      "t_mapping(t_address,t_mapping(t_bytes32,t_uint256))": {
        "encoding": "mapping",
        "key": "t_address",
        "label": "mapping(address => mapping(bytes32 => uint256))",
        "numberOfBytes": "32",
        "value": "t_mapping(t_bytes32,t_uint256)"
      },
      "t_mapping(t_bytes32,t_uint256)": {
        "encoding": "mapping",
        "key": "t_bytes32",
        "label": "mapping(bytes32 => uint256)",
        "numberOfBytes": "32",
        "value": "t_uint256"
      },
      "t_uint256": {
        "encoding": "inplace",
        "label": "uint256",
        "numberOfBytes": "32"
      }
    }
  }
}